:100000000C94EF000C9417010C9417010C94170139
:100010000C9417010C9417010C9417010C94170100
:100020000C9417010C9417010C9417010C941701F0
:100030000C9417010C94FC080C9417010C941701F4
:100040000C945A080C9417010C94CA080C94A40838
:100050000C9417010C9417010C9417010C941701C0
:100060000C9417010C94170100407A10F35A00A069
:10007000724E18090010A5D4E80000E87648170071
:1000800000E40B54020000CA9A3B000000E1F505B1
:10009000000080969800000040420F000000A086FB
:1000A00001000000102700000000E803000000002D
:1000B0006400000000000A000000000001000000D1
:1000C00000002C76D888DC674F0823DFC1DFAE59EB
:1000D000E1B1B796E5E3E453C63AE651997696E87E
:1000E000E6C28426EB898C9B62ED407C6FFCEFBC02
:1000F0009C9F40F2BAA56FA5F490055A2AF75C932D
:100100006B6CF9676DC11BFCE0E40D47FEF520E662
:10011000B500D0ED902E0300943577050080841E45
:10012000080000204E0A000000C80C333333330FA0
:10013000986E12831141EF8D2114893BE65516CF3D
:10014000FEE6DB18D1844B381BF77C1D901DA4BB49
:10015000E424203284725E228100C9F124ECA1E5FE
:100160003D27005EBCE2613FDD83C29C7E20A3FD93
:100170001F41009D23BE46DB65F88C11AF32CA5784
:10018000E97400000000240027002A00000000009D
:10019000250028002B0000000008000201000003D9
:1001A0000407000000000000000000000000230021
:1001B00026002900040404040404040402020202C8
:1001C000020203030303030301020408102040801A
:1001D0000102040810200102040810202309112440
:1001E0001FBECFEFD8E0DEBFCDBF12E0A0E0B1E090
:1001F000E0ECF7E202C005900D92A032B107D9F70A
:1002000023E0A0E2B2E001C01D92A134B207E1F701
:1002100010E0CFEED0E004C02197FE010E940E1244
:10022000CE3ED107C9F70E94DD090C94DE130C9471
:1002300000009091D902963009F0B0F4E091DA0212
:10024000F0E0E353FD4F86838091D9028F5F809366
:10025000D9028091DA028F5F8093DA028091DA020C
:10026000863010F01092DA02089590E0FC01EA5610
:10027000FE4F2491FC01E853FE4F3491FC01EC54F5
:10028000FE4FE491EE23C9F0222339F0233001F12F
:10029000A8F4213019F1223029F1F0E0EE0FFF1F10
:1002A000E457FE4FA591B4918FB7F894EC9161118A
:1002B00026C030953E233C938FBF08952730A9F088
:1002C0002830C9F0243049F7809180008F7D03C029
:1002D000809180008F7780938000DFCF84B58F7707
:1002E00084BDDBCF84B58F7DFBCF8091B0008F774D
:1002F0008093B000D2CF8091B0008F7DF9CF3E2B9C
:10030000DACFCF93DF9390E0FC01E853FE4F2491C6
:100310008C549E4FFC0184918823C9F090E0880F93
:10032000991FFC01EE57FE4FA591B491FC01E457D3
:10033000FE4FC591D49161110DC09FB7F8948C9177
:10034000209582238C938881282328839FBFDF9167
:10035000CF910895623051F49FB7F8943C91822F69
:10036000809583238C93E8812E2BEFCF8FB7F89461
:10037000EC912E2B2C938FBFEACF3FB7F89480914E
:100380002C0290912D02A0912E02B0912F0226B541
:10039000A89B05C02F3F19F00196A11DB11D3FBFBD
:1003A000BA2FA92F982F8827BC01CD01620F711D8C
:1003B000811D911D42E0660F771F881F991F4A9586
:1003C000D1F708958F929F92AF92BF92CF92DF9212
:1003D000EF92FF926B017C010E94BD014B015C0119
:1003E000C114D104E104F104B9F00E94BD016819FF
:1003F00079098A099B09683E73408105910580F35C
:1004000021E0C21AD108E108F10888EE880E83E0E5
:10041000981EA11CB11CE4CFFF90EF90DF90CF900D
:10042000BF90AF909F908F900895AF92BF92CF9260
:10043000DF92EF92FF920F931F93CF93DF936C01A4
:100440007B018B01040F151FEB015E01AE18BF0885
:10045000C017D10759F06991D601ED91FC91019037
:10046000F081E02DC6010995892B79F7C501DF914F
:10047000CF911F910F91FF90EF90DF90CF90BF90A1
:10048000AF900895FC01538D448D252F30E0842FCB
:1004900090E0821B930B541710F0CF9608950197AC
:1004A0000895FC01918D828D981761F0A28DAE0F99
:1004B000BF2FB11D5D968C91928D9F5F9F73928F20
:1004C00090E008958FEF9FEF0895FC01918D828D4C
:1004D000981731F0828DE80FF11D858D90E0089519
:1004E0008FEF9FEF0895FC01918D228D892F90E071
:1004F000805C9F4F821B91098F739927089580E339
:1005000092E00E94730221E0892B09F420E0822FFF
:10051000089580E090E0892B29F00E947F028111EC
:100520000C9400000895FC01A48DA80FB92FB11DF3
:10053000A35ABF4F2C91848D90E001968F73992719
:10054000848FA689B7892C93A089B1898C918370F7
:1005500080648C93938D848D981306C00288F389F0
:10056000E02D80818F7D80830895EF92FF920F931D
:100570001F93CF93DF93EC0181E0888F9B8D8C8D4F
:1005800098131AC0E889F989808185FF15C09FB743
:10059000F894EE89FF896083E889F9898081837006
:1005A000806480839FBF81E090E0DF91CF911F91B5
:1005B0000F91FF90EF900895F62E0B8D10E00F5FD6
:1005C0001F4F0F731127E02E8C8D8E110CC00FB6AC
:1005D00007FCFACFE889F989808185FFF5CFCE0144
:1005E0000E949302F1CFEB8DEC0FFD2FF11DE35A2A
:1005F000FF4FF0829FB7F8940B8FEA89FB898081C7
:100600008062CFCFCF93DF93EC01888D8823B9F040
:10061000AA89BB89E889F9898C9185FD03C080810D
:1006200086FD0DC00FB607FCF7CF8C9185FFF2CF8A
:10063000808185FFEDCFCE010E949302E9CFDF914B
:10064000CF910895813061F028F0823079F08330C5
:1006500099F00895662311F02D9A08952D98089524
:10066000662311F02C9A08952C980895662311F0B2
:100670002B9A08952B980895662311F02A9A0895CD
:100680002A9808955C9827E030E070E0AB01022ED4
:1006900002C0559547950A94E2F740FF1FC0289A7B
:1006A0005F9A5F982150310988F727E030E0E82F02
:1006B000F0E0E95FFE4F808190E0AC01022E02C0C5
:1006C000559547950A94E2F740FF0AC0289A5F9A29
:1006D0005F982150310988F75C9A08952898E0CFF7
:1006E0002898F5CF0895DC0180E0615090F09D914D
:1006F0009827E92FEF70F0E0EE59FE4F2491E92F93
:10070000E295EF70F0E0EE58FE4FE491822F8E27D5
:10071000ECCF0895FC011386158614861286118687
:100720001086178216821582148213820895DC01C6
:100730002C911196ED91FC91F8948181822B81830B
:100740009281322F30959323928387E090E0019736
:10075000F1F781818323818383E290E00197F1F7B0
:1007600090817894EFECF0E03197F1F7922381E0FB
:1007700009F480E00895FC0190810180F281E02D70
:10078000292F209560FF14C0F894828182238283F0
:100790008181892B8183A3E2B0E01197F1F78281F7
:1007A000982B9283789487ED90E00197F1F7089564
:1007B000F8948281822382838181892B8183AFEFA8
:1007C000B0E01197F1F78281982B928378948FE0B3
:1007D00090E0EBCFDF92EF92FF920F931F93CF93B6
:1007E000DF93EC01D62EE42E08E010E0FF24F39412
:1007F00061E08D2D8F2109F460E0CE010E94BB03E2
:10080000FF0C01501109A1F7E11010C0F894E98123
:10081000FA8191818881809589238183E981FA8198
:10082000928188818095892382837894DF91CF910A
:100830001F910F91FF90EF90DF900895EF92FF923C
:100840000F931F93CF93DF938C017B0140E065E50D
:100850000E94EA03E70188E0E80EF11C699140E09C
:10086000C8010E94EA03CE15DF05C1F7DF91CF91E1
:100870001F910F91FF90EF900895FC0190810180EE
:10088000F281E02DF8948181292F209582238183A4
:1008900078943DE743E050E0315029F1DA011197B7
:1008A000F1F780818923C1F3F894828182238283C6
:1008B0008181892B81837894ABE7B7E01197F1F7B9
:1008C000F894818182238183A3E1B1E01197F1F74C
:1008D0008081982381E009F080E07894E3E6F6E0F7
:1008E0003197F1F7089580E008956F927F928F928B
:1008F0009F92AF92BF92CF92DF92EF92FF920F93AF
:100900001F93CF93DF938C01EB018091250390918E
:1009100026030E943D04882309F43FC0B80180915A
:100920002503909126030E941E0440E06EEB809107
:100930002503909126030E94EA037E016E0189E05F
:10094000C80ED11C8E01A0902503B090260388E02C
:10095000882E912C712C66246394C5010E94970304
:1009600081117628660CE1E08E1A9108B1F7F80142
:1009700071928F01CE16DF0631F780912503909199
:1009800026030E943D04813041F4F70181917F01EB
:10099000811105C0E017F107C1F790E008C068E0D9
:1009A000CE010E94730391E028852813F6CF892F8A
:1009B000DF91CF911F910F91FF90EF90DF90CF903B
:1009C000BF90AF909F908F907F906F900895FC01A3
:1009D00001900020E9F73197AF01481B590BBC018A
:1009E00080E392E00C9415028F929F92AF92BF9297
:1009F0000F931F93CF93DF93CDB7DEB7A1970FB6B9
:100A0000F894DEBF0FBECDBF19A2423008F44AE011
:100A10008E010F5D1F4F842E912CB12CA12CA501AE
:100A200094010E94D811E62FB901CA01EA30F4F40A
:100A3000E05DD801EE938D01232B242B252B79F734
:100A400090E080E0109719F0CD010E94E704A19694
:100A50000FB6F894DEBF0FBECDBFDF91CF911F91CF
:100A60000F91BF90AF909F908F900895E95CE1CF78
:100A7000CF93DF930E94E704EC018AE491E00E94A7
:100A8000E7048C0F9D1FDF91CF910895BF92CF9205
:100A9000DF92EF92FF920F931F93CF93DF93EC01BE
:100AA000B62EC72E8D85811105C0CE010E943D0452
:100AB00081110EC01B861D861C8680E0DF91CF91C0
:100AC0001F910F91FF90EF90DF90CF90BF9008950E
:100AD00040E060EFCE010E94EA0301E0E12CD12C5E
:100AE00011E0CE010E949703F82ECE010E949703D9
:100AF00091E0F91218C0813099F51134D8F2DB86F3
:100B0000D11002C081E08D878B81882399F22396D2
:100B1000EB2DFC2DCF01089629912193E817F907B9
:100B2000D9F781E0CBCFEE2DF0E0F8120FC08B8526
:100B30001817A0F4DE01AE0FBF1F13968C9180230F
:100B400079F4F12C193008F41C87D12EEC0FFD1F1D
:100B50008381902F9095892383830AC08113F1CFDD
:100B6000FE01EE0DF11D8381802B8383FF24F3941E
:100B70006F2DCE010E94BB031F5F000F11F4E394A1
:100B800001E087E08E1508F0ACCFB7CFCF93DF93AD
:100B9000EC0180912503909126030E948A03BE01F7
:100BA00080912503909126030E944605982F882363
:100BB00041F067E0CE010E94730391E02F8128137A
:100BC00090E0892FDF91CF9108959F92AF92BF92CD
:100BD000CF92DF92EF92FF920F931F93CF93DF9309
:100BE00080910001815009F4AEC080930001809192
:100BF000EF0281112AC08091F1029091F202892BBB
:100C000021F18091F5029091F602892B51F48091A7
:100C1000F002813009F445C108F431C1823009F491
:100C20006AC18091F5029091F602892B49F080917A
:100C3000F5029091F60201979093F6028093F502E7
:100C40008091F002811172C15B988091DC029091D9
:100C5000DD028233910508F479C11092DD02109211
:100C6000DC0293E2C92E92E0D92E20E2E22E22E0AD
:100C7000F22E0DEC12E0E801BB24B394D601ED9105
:100C80006D01F0E0EE0FFF1FE655FE4FA591B49108
:100C9000AC90F70181917F01A82299249394A1102F
:100CA000912CD80151968C91981639F0A11040C121
:100CB0008B2D0E941901F801918AA11015C08C8911
:100CC0009D898531910540F083709927892B21F406
:100CD0008B2D80680E9419018C899D898F3F980710
:100CE00019F001969D8B8C8B0F5F1F4F2296B3944A
:100CF00024E0B212C3CF80910403882309F478C1A1
:100D000080910603811174C1EAEAF1E0A591B491E2
:100D10008C9180911103882329F080910C03882302
:100D200009F41AC120910A0330910B038091070343
:100D3000909108032817390708F4A6C110920E03F2
:100D400010920D0334C184E0809300014091FE02B3
:100D5000411106C080910203811102C0D1E011C08F
:100D6000809100038F5F80930003D091FF02DD2309
:100D700009F466C0823490F31092FF0210920003CF
:100D8000D0E08091FD02282F30E050E0082E02C014
:100D9000559547950A94E2F740FF5BC06FEFDD235E
:100DA00021F02D5F3E4FD9016C910E94420380914A
:100DB000FD028F5F843008F051C08093FD02809166
:100DC0000103C0910203C8239FEF9D0FC923C827C9
:100DD00080910303C81709F40ACF10E000E0802FC8
:100DE000209103032C2730E0002E02C03595279573
:100DF0000A94E2F720FF1CC02091020330E0002E8D
:100E000002C0359527950A94E2F720FF2AC061E0D9
:100E1000DD2361F06091010370E0002E02C0759542
:100E200067950A94E2F76095709561700E942203BD
:100E30000F5F1F4F0430110591F6C0930303D7CE07
:100E4000853108F49ECF81E08093FF021092000369
:100E500085CF2D5F3E4FF9016081A7CF1092FD0233
:100E6000AECF6091010370E0002E02C075956795CA
:100E70000A94E2F76095709561707727D7CF8091DB
:100E8000F3029091F402892B61F08091F30290912A
:100E9000F4029093F6028093F50281E08093F002D1
:100EA000C0CE8091F80281508093F8028091F802C0
:100EB000882359F08091F1029091F2029093F6020A
:100EC0008093F5021092F002ACCE8091F7028093ED
:100ED000F8028091FB029091FC029093F6028093BD
:100EE000F50282E08093F0028091FB029091FC0277
:100EF000892B09F096CE8091F9029091FA02892B04
:100F0000C9F28091F9029091FA0201979093FA0246
:100F10008093F9028091F9029091FA02892B51F69F
:100F20001092F2021092F1025B9A7BCE5B9A8DCE08
:100F30008C899D89459738F08B2D806C0E94190112
:100F40001D8A1C8AB8CE8B2D8064F8CF01969093B1
:100F5000DD028093DC02CFCE8091120390911303C7
:100F6000A0911403B09115030196A11DB11D8093AA
:100F7000120390931303A0931403B09315032091CD
:100F80000A0330910B0380910703909108032817FF
:100F9000390708F076C080910A0390910B03909373
:100FA0000E0380930D0310920B0310920A0380919D
:100FB0000503811118C080910D0390910E03909349
:100FC000100380930F038091120390911303A0915B
:100FD0001403B09115038093160390931703A09305
:100FE0001803B0931903809111038111109211031A
:100FF0008091E7029091E802A091E902B091EA02A3
:10100000892B8A2B8B2BB9F08091D202811113C0CE
:101010008091E7029091E802A091E902B091EA0282
:101020000197A109B1098093E7029093E802A09388
:10103000E902B093EA028091D102811110C080913F
:10104000E7029091E802A091E902B091EA02809350
:10105000EB029093EC02A093ED02B093EE02E091CC
:10106000CD02F091CE023097C9F0DF91CF911F9160
:101070000F91FF90EF90DF90CF90BF90AF909F9037
:10108000099490E080E08BCF80910A0390910B034C
:10109000019690930B0380930A0389CFDF91CF9140
:1010A0001F910F91FF90EF90DF90CF90BF90AF9086
:1010B0009F9008951F920F920FB60F9211242F93B5
:1010C0003F938F939F93AF93BF938091280290910A
:1010D0002902A0912A02B0912B023091270223E02D
:1010E000230F2D3758F50196A11DB11D209327021E
:1010F0008093280290932902A0932A02B0932B0296
:1011000080912C0290912D02A0912E02B0912F027D
:101110000196A11DB11D80932C0290932D02A093E6
:101120002E02B0932F02BF91AF919F918F913F916B
:101130002F910F900FBE0F901F90189526E8230F48
:101140000296A11DB11DD2CF1F920F920FB60F9222
:1011500011242F933F934F935F936F937F938F93BC
:101160009F93AF93BF93EF93FF9380E392E00E942E
:101170009302FF91EF91BF91AF919F918F917F91DA
:101180006F915F914F913F912F910F900FBE0F90F4
:101190001F9018951F920F920FB60F9211242F9344
:1011A0008F939F93EF93FF93E0914002F091410260
:1011B0008081E0914602F091470282FD1BC0908140
:1011C000809149028F5F8F7320914A02821741F00C
:1011D000E0914902F0E0E05DFD4F958F8093490278
:1011E000FF91EF919F918F912F910F900FBE0F90D4
:1011F0001F9018958081F4CF1F920F920FB60F9217
:1012000011242F933F934F935F936F937F938F930B
:101210009F93AF93BF93EF93FF93E0910101F09100
:1012200002010995FF91EF91BF91AF919F918F912D
:101230007F916F915F914F913F912F910F900FBED2
:101240000F901F9018951F93CF93DF93E0E3F2E088
:101250001382128288EE93E0A0E0B0E0848395834D
:10126000A683B7838CE391E09183808385EC90E043
:101270009587848784EC90E09787868780EC90E060
:10128000918B808B81EC90E0938B828B82EC90E051
:10129000958B848B86EC90E0978B868B118E128ECB
:1012A000138E148EEDECF2E01182108214821582FE
:1012B000148615861686108A1786118A128A138A52
:1012C000158A148A178A168A118E108E128E138E22
:1012D000148E158E168E178E10A211A212A213A2B2
:1012E00015A214A217A216A211A610A612A613A642
:1012F00015A614A617A616A610AA11AA12AA13AA12
:1013000014AA15AA16AA17AA10AE11AE88EB9BE074
:1013100093AF82AF2FE024AF96AF85AF17AE109298
:101320000E0310920D031092100310920F031092EF
:1013300011031092120310921303109214031092CF
:1013400015031092160310921703109218031092AF
:10135000190311E010931A0310931B0360E082E15C
:101360000E948101EAEDF1E0E491C3E3D3E0E88378
:10137000E6ECF1E0E491F0E0EE0FFF1FE655FE4FE2
:10138000859194919A838983CE010E948A03ECE12E
:10139000F3E017821086108289E08383148315831B
:1013A00016831182168A158A8FEF838B148AD2874F
:1013B000C187DF91CF911F910895CF93DF93CDB770
:1013C000DEB765970FB6F894DEBF0FBECDBF789439
:1013D00084B5826084BD84B5816084BD85B582603A
:1013E00085BD85B5816085BD80916E0081608093EB
:1013F0006E00109281008091810082608093810054
:101400008091810081608093810080918000816063
:10141000809380008091B10084608093B1008091BE
:10142000B00081608093B00080917A0084608093E6
:101430007A0080917A00826080937A0080917A00AD
:10144000816080937A0080917A00806880937A002E
:101450001092C100E0914002F091410282E080834D
:10146000E0913C02F0913D021082E0913E02F09149
:101470003F028FEC808310924802E0914402F09189
:10148000450286E08083E0914202F0914302808130
:1014900080618083E0914202F09143028081886004
:1014A0008083E0914202F0914302808180688083D2
:1014B000E0914202F091430280818F7D80838DE430
:1014C00091E00E94380513E001E08091250390919E
:1014D00026030E948A03109223031092240362E3DE
:1014E00070E080E090E00E94E201BE01665F7F4F05
:1014F00080912503909126030E944605882309F4D4
:101500007AC067E0CE010A960E9473039989891315
:10151000ECCF809123038F5F809323038A858832E9
:1015200031F008F04EC0803111F08232F1F6809136
:1015300024038F5F8093240380911C03811128C0B2
:1015400080912503909126030E943D04BE01665FB1
:101550007F4F80912503909126030E941E0440E056
:1015600064EB80912503909126030E94EA03809109
:101570002503909126030E949703F82E809125035E
:10158000909126030E943D04F11002C000931C03B9
:101590008A85803109F1BE016F5F7F4FCE010A96C7
:1015A0000E947504882359F08D819A859B3311F42C
:1015B00087FD12C08F3391F058F48F31C1F080E075
:1015C0000EC08B3309F4B3CF823409F08ECFAFCF86
:1015D0008F3579F08F3799F78CE001C08AE09091D0
:1015E0001F03981708F081CF80931F037ECF89E0F7
:1015F000F6CF8BE0F4CF80912303811103C011500B
:1016000009F063CF8CE080931F03809125039091B4
:1016100026030E948A03F12C80912303F81608F018
:10162000B6C0BE01665F7F4F80912503909126036F
:101630000E944605882309F48AC067E0CE010A9615
:101640000E9473039989891382C010911F038A85B0
:10165000803109F47CC01D3008F47BC01CE0BE0161
:101660006F5F7F4FCE010A960E947504882309F4AC
:101670006EC01A508FE1133028F4E12FF0E0E55FDF
:10168000FE4F80819D81981709F461C08D83809100
:101690002503909126030E943D04BE01665F7F4FA3
:1016A00080912503909126030E941E0440E06EE481
:1016B00080912503909126030E94EA0340E06B810C
:1016C00080912503909126030E94EA0340E06C81FB
:1016D00080912503909126030E94EA038A85803138
:1016E00041F040E06D8180912503909126030E9496
:1016F000EA0380912503909126032091220322235F
:1017000021F10E943D04882311F1BE01665F7F4FE5
:1017100080912503909126030E941E0440911C0392
:1017200068E480912503909126030E94EA0380914A
:101730001C03811113C064E170E080E090E00E941E
:10174000E20180912503909126030E943D04F394C9
:1017500063CF193008F083CF19E081CF80911D034A
:10176000882329F060E080911E030E94350164E126
:1017700070E080E090E00E94E20180911D038823E8
:1017800001F361E080911E030E943501DACF88E702
:1017900091E00E94E7046091230370E090E080E014
:1017A0004AE00E94F4048FE791E00E94380580919E
:1017B0002303882351F1CE0101960E94C605882398
:1017C00021F189E891E00E94E7049E012F5F3F4FDD
:1017D00079016E0139E0C30ED11C8AE991E00E94C3
:1017E000E704F70161917F0170E090E080E040E163
:1017F0000E94F40487EE91E00E94E704EC14FD04DB
:1018000061F78AE491E00E94E70480E1809381001F
:101810001092800082E19AE790938700809386007F
:1018200084E18093810061E08DE00E94810161E0AC
:101830008CE00E94810161E08BE00E94810161E007
:101840008AE00E94810161E08DE00E94350161E043
:101850008CE00E94350161E08BE00E94350161E07F
:101860008AE00E94350161E084E00E94810161E02C
:1018700087E00E94810161E088E00E9481016FEFB2
:1018800080E00E94420361E083E00E94810161E008
:1018900083E00E94350162E08FE00E94810162E0F6
:1018A00080E10E94810162E081E10E948101E3EC1C
:1018B000F1E0E491E0932302E7EDF1E0E491E093BD
:1018C0002002E4ECF1E0E491E0932402E8EDF1E0A1
:1018D000E491E0932102E5ECF1E0E491E09325024C
:1018E000E9EDF1E0E491E093220286E292E0909348
:1018F000D0028093CF0280E49FE190938700809391
:10190000860081E18093810085EE95E0909302014D
:101910008093010181E080936F009E012F5F3F4F14
:101920005901BFE78B2E99249A948DE991E00E948A
:10193000E70480912503909126030E943D0440E036
:101940006CEC80912503909126030E94EA0340915C
:101950001C0364E480912503909126030E94EA030E
:101960008FB7F894C0902802D0902902E0902A0204
:10197000F0902B028FBF80912003882329F1809162
:101980002103882309F4D4C080911C038111D0C0A5
:1019900080912503909126030E9497038130A1F046
:1019A0002FB7F8948091280290912902A0912A02E1
:1019B000B0912B022FBF8C199D09AE09BF098E3E35
:1019C0009240A105B10520F36EEE72E080E090E058
:1019D0000E94E20188EB91E00E9438058091230388
:1019E000882309F42EC2CE010A960E94C6058823D8
:1019F00009F427C2B501CE010A960E947504882316
:101A000009F41FC28A81412C512C320187FF06C084
:101A1000412C512CF8EF6F2E77247A949A854981C6
:101A20009B3309F0AEC02D8127FFABC040FD09C23A
:101A3000C42ED12CF12CE12C63E0CC0CDD1CEE1C6F
:101A4000FF1C6A95D1F7B701A601407E5770662743
:101A5000772790E0B0E0A0E06C017D01EBE0CC0CDA
:101A6000DD1CEE1CFF1CEA95D1F7C42AD52AE62A14
:101A7000F72AC428D528E628F72831E8C31634EE1B
:101A8000D3063FEFE306F3060CF4DBC1C701B60152
:101A90000E94B71220E030E040E05CE30E946C134B
:101AA0006B017C0120E030E04EEF52EC0E9481128D
:101AB000882309F4C6C18DEB91E00E94E704A701D9
:101AC0009601C701B6010E94D913882309F4A2C068
:101AD00089EE91E00E94E70485EF91E00E943805CD
:101AE000850121E044E0C701B6010E94380FF501ED
:101AF00001900020E9F73197EA19FB09369718F0B1
:101B000085E489831A821A861B861C861D86D50168
:101B100030E0ED91E1111CC1EAE0F0E0EC0FFD1FB7
:101B2000E30FF11D343008F05FC191923F5FFACFAF
:101B3000E0911F03E9508EEE92E0E33038F4F0E0DC
:101B4000EE0FFF1FE25FFE4F808191816C01F12C4F
:101B5000E12C80911D03882329F060E080911E0311
:101B60000E943501C701B6010E94E20180911D0368
:101B7000882309F429CF61E080911E030E9435017A
:101B800023CFC82ED12CDC2CCC24DD0CDD0CDD0CBD
:101B900088E0489FA0011124C42AD52A0D2C000CEE
:101BA000EE08FF08C428D528E628F728903109F068
:101BB00064CF6885662309F460CF70E08F81FB01F4
:101BC000E81BF109CF019695982F8827979587955F
:101BD0000E94C411CB01770FAA0BBB0B33E0CC0CD6
:101BE000DD1CEE1CFF1C3A95D1F7F0E8CF22F7E0A0
:101BF000EF22FF2420E2C21AD108E108F1088C0D7F
:101C00009D1DAE1DBF1D73016201C82AD92AEA2A93
:101C1000FB2A33CF26013701E89477F82FEF3FEF07
:101C20004FE75FE7C301B2010E94D91381110DC0D4
:101C30002FEF3FEF4FE75FE7C301B2010E94811230
:101C400018161CF48DEE91E045CF2FEF3FEF4FE7D4
:101C50005FE4C701B6010E94671318161CF481EFF8
:101C600091E038CF2FEF3FEF4FE75FECC701B601B0
:101C70000E94811287FDF3CF20E030E0A901C70167
:101C8000B6010E94811287FF60C06DE280E392E09E
:101C90000E94B502C701B60190582AE037ED43EA29
:101CA0005BE30E9415126A8B7B8B8C8B9D8B0E9451
:101CB00086122B013C010E94B5129B01AC016A897E
:101CC0007B898C899D890E9414126A8B7B8B8C8BFB
:101CD0009D8B4AE0C301B2010E94F4046EE280E3EE
:101CE00092E00E94B50220E030E040E251E46A89CF
:101CF0007B898C899D890E946C136A8B7B8B8C8B72
:101D00009D8B0E9486122B01712C612C4AE0C3012D
:101D1000B2010E94F404C301B2010E94B5129B01FA
:101D2000AC016A897B898C899D890E94141220E00C
:101D300030E040E251E40E946C130E94861290E071
:101D400080E04AE00E94F404C7CEC701B601A5CFE7
:101D5000343008F0E1CEEE3299F4332371F0432FA2
:101D60004150550BFA018AE090E08C0F9D1FE80F5F
:101D7000F91F80818F778083CCCE8A8631E0C9CEEF
:101D8000832F90E020ED2E0F2A3070F4F0E0E25027
:101D9000FF4F2081EAE0F0E0EC0FFD1F8E0F9F1F48
:101DA000FC0120833F5FB5CE2FE92E0F2A3120F4AE
:101DB000F0E0ED54FF4FEDCF2FEB2E0F2A3120F442
:101DC000F0E0ED52FF4FE5CF2FEBED3219F32CF49D
:101DD0002FEFE032F9F226EBDDCF2FE7EE32D1F232
:101DE00027EFEF35B9F2F7CFFE013A9623E030E066
:101DF00083818F3F31F42150310931972F3F3207D2
:101E0000B9F783E090E02F3F320791F08F3F9807BA
:101E1000E1F0EAE0F0E0EC0FFD1FE20FF31F40817C
:101E2000FC01ED5FFE4F4083215031090197EBCF5C
:101E30008F3F980751F0FC01ED5FFE4F90820197B4
:101E4000F7CF89EF91E00E94380568E873E180E000
:101E500090E00E94E20180E090E0892B09F465CDDA
:101E60000E947F02882309F45ECD0E9400005BCDB2
:101E7000EF920F931F93CF93DF93E80134E047FD78
:101E800034E1042E000C550B57FF03C051954195CA
:101E90005109E32E022F242FAE010E94560FCE01CE
:101EA000DF91CF911F910F91EF900895A9E0B0E0DD
:101EB000ECE5FFE00C9493116A01F22EB02E102F86
:101EC000FBE3AF2EA01608F41BE31F5F012F27E0F2
:101ED000AE014F5F5F4F0E94B510BC018981982F02
:101EE0009970913009F43FC09BE2E1FC04C09E2D43
:101EF0009170E0FC3AC05E2D5071E82FE87083FFCE
:101F000046C084E0911101C083E0EF2DE81B8F15DE
:101F100008F0E0E0D6018E2F20E2552351F19923FD
:101F200029F0D6019C93C60101966C0196012D5FA4
:101F30003F4FE2FE24C08EE4D6018C9391E41196CB
:101F40009C93119712968C93D9018E2F90E2811158
:101F50001BC0E20FF32FF11D10828EEF9FEF299629
:101F6000ECE00C94AF119DE2C6CF90E2C4CF2D936C
:101F700081508111FCCFCE0ED11CE0E0D0CF8EE697
:101F8000D6018C9391E6DBCF9D938150E0CF482F13
:101F9000447082FF3DC084E0911101C083E08F1541
:101FA00010F4EF2DE81BD6018E2F20E2552309F106
:101FB000992329F0D6019C93C60101966C019601E4
:101FC0002D5F3F4FE2FE1BC089E4D6018C938EE467
:101FD00011968C93119786E412968C93D9018E2FCB
:101FE00090E2882309F4B5CF9D938150FACF2D93C9
:101FF00081508111FCCFCE0ED11CE0E0D9CF89E613
:10200000D6018C938EE611968C93119786E6E4CFD9
:102010009B0177FF02C030E020E0A1E0B0E0911129
:1020200002C0B0E0A0E0F9013196AE0FBF1F8B2CCB
:10203000912CBB2009F461C05401EFEFAE1ABE0A27
:10204000AA0DBB1DFA161B0619F014F04F2D4A1BE2
:10205000511188C0E3FC59C07601A42FB0E2A11150
:102060004FC0C40ED11C992309F45BC040E0D601D7
:102070001196F60190836D01552309F448C0012F94
:10208000060F9A81582F507184FF03C0913309F4D1
:10209000015010160CF047C0093008F008E0EEE2DD
:1020A000FE2E5B01A01AB1088501919481949108DC
:1020B0002F3F320729F4D601FC92F60131966F01C9
:1020C0006217730794F1021713077CF5DB01A21B5B
:1020D000B30BAA24A394B12CAC0EBD1EAA0DBB1D3C
:1020E00011968C9121503109D60111962815390588
:1020F000F4F0F60180836D01DBCFB12CA12CA0CFD1
:10210000F701B1937F01A150AACF9111B0CFD601B1
:10211000942F50E302C05D9391509111FCCFC40EF7
:10212000D11C40E0ACCF01E0BACF80E3DBCF621737
:10213000730731F4963388F4953311F4552369F01D
:10214000F6018083FD01842F90E2811108C0A40F65
:10215000B11D1C9290E080E002CF81E3F1CF91931A
:102160008150F3CF911183CF8ACF283008F027E038
:102170003327DA01990F311D87FD916000966105C3
:10218000710539F432602E5F3D9330E32A95E1F713
:1021900008959F3F30F080387105610509F03C5F7C
:1021A0003C5F3D93913008F08068911DDF93CF93A1
:1021B0001F930F93FF92EF92192F987F9695E92F17
:1021C00096959695E90FFF27EE53FF4F99273327F2
:1021D000EE24FF24A701E70105900894079428F452
:1021E000360FE71EF81E491F511D660F771F881F07
:1021F000991F0694A1F70590079428F4E70EF81E9E
:10220000491F561FC11D770F881F991F661F06940F
:10221000A1F70590079428F4F80E491F561FC71F11
:10222000D11D880F991F661F771F0694A1F705908F
:10223000079420F4490F561FC71FD81F990F661F18
:10224000771F881F0694A9F784911095177041F0A5
:10225000D695C79557954795F794E7941A95C1F782
:10226000E8E6F0E0689415901591359165919591A7
:1022700005907FE27395E118F10A430B560BC90BE9
:10228000D009C0F7E10CF11E431F561FC91FD01D16
:102290007EF4703311F48A95E6CFE894015030F063
:1022A000080F0AF40027021708F4202F2395022FA5
:1022B0007A3328F079E37D932A95E9F710C07D936E
:1022C0002A9589F6069497956795379517951794EB
:1022D000E118F10A430B560BC90BD00998F023956E
:1022E0007E9173957A3308F070E37C932013B8F7EE
:1022F0007E9170617D9330F0839571E37D9370E3FF
:102300002A95E1F71124EF90FF900F911F91CF9143
:10231000DF91992787FD909508952F923F924F92D4
:102320005F926F927F928F929F92AF92BF92CF9265
:10233000DF92EF92FF920F931F93CF93DF93CDB76E
:10234000DEB7CA1BDB0B0FB6F894DEBF0FBECDBFE6
:1023500009942A88398848885F846E847D848C84B7
:102360009B84AA84B984C884DF80EE80FD800C81C0
:102370001B81AA81B981CE0FD11D0FB6F894DEBFA3
:102380000FBECDBFED01089597FB072E16F4009404
:1023900007D077FD09D00E94FA1107FC05D03EF462
:1023A000909581959F4F0895709561957F4F089501
:1023B000A1E21A2EAA1BBB1BFD010DC0AA1FBB1F49
:1023C000EE1FFF1FA217B307E407F50720F0A21BBB
:1023D000B30BE40BF50B661F771F881F991F1A9428
:1023E00069F760957095809590959B01AC01BD0152
:1023F000CF010895AA1BBB1B51E107C0AA1FBB1F39
:10240000A617B70710F0A61BB70B881F991F5A9580
:10241000A9F780959095BC01CD010895EE0FFF1F9F
:102420000590F491E02D09945058BB27AA270E94EB
:102430002C120C942D130E941F1338F00E942613A7
:1024400020F039F49F3F19F426F40C941C130EF479
:10245000E095E7FB0C941613E92F0E943E1358F306
:10246000BA17620773078407950720F079F4A6F579
:102470000C9460130EF4E0950B2EBA2FA02D0B01D7
:10248000B90190010C01CA01A0011124FF27591BB9
:1024900099F0593F50F4503E68F11A16F040A22FBF
:1024A000232F342F4427585FF3CF46953795279530
:1024B000A795F0405395C9F77EF41F16BA0B620B2F
:1024C000730B840BBAF09150A1F0FF0FBB1F661F76
:1024D000771F881FC2F70EC0BA0F621F731F841FB9
:1024E00048F4879577956795B795F7959E3F08F0DF
:1024F000B0CF9395880F08F09927EE0F97958795A1
:1025000008950E94F21208F481E008950E94461393
:1025100088F09F5798F0B92F9927B751B0F0E1F0A4
:10252000660F771F881F991F1AF0BA95C9F714C054
:10253000B13091F00E946013B1E008950C946013E3
:10254000672F782F8827B85F39F0B93FCCF386958D
:1025500077956795B395D9F73EF4909580957095EA
:1025600061957F4F8F4F9F4F0895E89409C097FB67
:102570003EF490958095709561957F4F8F4F9F4F5A
:102580009923A9F0F92F96E9BB279395F69587959E
:1025900077956795B795F111F8CFFAF4BB0F11F461
:1025A00060FF1BC06F5F7F4F8F4F9F4F16C0882308
:1025B00011F096E911C0772321F09EE8872F762F3E
:1025C00005C0662371F096E8862F70E060E02AF07F
:1025D0009A95660F771F881FDAF7880F969587956B
:1025E00097F90895990F0008550FAA0BE0E8FEEF40
:1025F00016161706E807F907C0F012161306E407C7
:10260000F50798F0621B730B840B950B39F40A26BF
:1026100061F0232B242B252B21F408950A2609F49D
:10262000A140A6958FEF811D811D089597F99F67A1
:1026300080E870E060E008959FEF80EC089500244A
:102640000A941616170618060906089500240A9417
:1026500012161306140605060895092E0394000C9D
:1026600011F4882352F0BB0F40F4BF2B11F460FF2C
:1026700004C06F5F7F4F8F4F9F4F089557FD905855
:10268000440F551F59F05F3F71F04795880F97FB36
:10269000991F61F09F3F79F08795089512161306F0
:1026A0001406551FF2CF4695F1DF08C0161617061F
:1026B0001806991FF1CF8695710561050894089554
:1026C000E894BB2766277727CB0197F908950E94E6
:1026D000F21208F48FEF08950E947F130C942D13CB
:1026E0000E941F1338F00E94261320F0952311F04A
:1026F0000C9416130C941C1311240C9461130E9457
:102700003E1370F3959FC1F3950F50E0551F629FE4
:10271000F001729FBB27F00DB11D639FAA27F00D3A
:10272000B11DAA1F649F6627B00DA11D661F829F61
:102730002227B00DA11D621F739FB00DA11D621F46
:10274000839FA00D611D221F749F3327A00D611D63
:10275000231F849F600D211D822F762F6A2F112445
:102760009F5750409AF0F1F088234AF0EE0FFF1F78
:10277000BB1F661F771F881F91505040A9F79E3FCF
:10278000510580F00C9416130C9461135F3FE4F331
:10279000983ED4F3869577956795B795F795E79525
:1027A0009F5FC1F7FE2B880F911D9695879597F92E
:1027B00008950E94F212880B990B0895F894FFCFA8
:1027C000047203FFFFFFFFF1F2F4F83F5F7F5E004A
:1027D000BC0077018883A7A1868E908BCFF1B6C706
:1027E000B6ABA38C98AF9287E3B6B6B691B6C0F9F4
:1027F000A4B0999282F8809000000000B502150202
:10280000420202037302510265020D0A0044616C28
:102810006C61732054656D706572617475726520AA
:10282000494320436F6E74726F6C204C6962726111
:1028300072792044656D6F00466F756E64200020CC
:10284000646576696365732E0053656E736F7220DD
:10285000416464726573733A200030780052657188
:1028600075657374696E672074656D7065726174E7
:10287000757265732E2E2E00444F4E450054656DC3
:10288000706572617475726520666F722074686518
:102890002064657669636520312028696E646578F7
:1028A0002030292069733A20006E616E00696E66DF
:1028B000006F766600C2B043004572726F723A20B4
:1028C000436F756C64206E6F742072656164207450
:1028D000656D706572617475726520646174610004
:00000001FF
